:020000040800F2
:1000000080170020D10D00081D0300081F03000801
:1000100023030008270300082B030008000000004A
:100020000000000000000000000000002F03000896
:100030003103000800000000330300083503000806
:10004000EB0D0008EB0D0008EB0D0008EB0D0008B0
:10005000EB0D0008EB0D0008EB0D0008EB0D0008A0
:10006000EB0D0008EB0D0008EB0D0008EB0D000890
:10007000EB0D0008EB0D0008EB0D0008EB0D000880
:10008000EB0D0008EB0D0008EB0D0008EB0D000870
:10009000EB0D0008EB0D0008EB0D0008EB0D000860
:1000A000EB0D0008EB0D0008EB0D0008EB0D000850
:1000B000EB0D0008EB0D0008EB0D0008EB0D000840
:1000C000EB0D0008EB0D0008EB0D0008EB0D000830
:1000D000EB0D0008470D0008EB0D0008EB0D0008C4
:1000E000EB0D0008EB0D0008EB0D0008EB0D000810
:1000F000EB0D0008EB0D0008EB0D0008EB0D000800
:10010000EB0D0008EB0D0008EB0D0008EB0D0008EF
:10011000EB0D0008EB0D0008EB0D0008EB0D0008DF
:10012000EB0D0008EB0D0008EB0D0008EB0D0008CF
:1001300000F002F800F05FF80AA090E8000C82449A
:100140008344AAF10107DA4501D100F054F8AFF277
:10015000090EBAE80F0013F0010F18BFFB1A43F0A5
:1001600001031847183F0000383F00000A444FF0D1
:10017000000C10F8013B13F0070408BF10F8014B06
:100180001D1108BF10F8015B641E05D010F8016B4B
:10019000641E01F8016BF9D113F0080F1EBF10F8AF
:1001A000014BAD1C0C1B09D16D1E58BF01F801CBD2
:1001B000FAD505E014F8016B01F8016B6D1EF9D555
:1001C0009142D6D37047000000230024002500266A
:1001D000103A28BF78C1FBD8520728BF30C148BFAA
:1001E0000B607047642901F05D86002070471FB5E1
:1001F0001FBD10B510BD01F023FF1146FFF7F7FF3B
:1002000000F008F801F041FF03B4FFF7F2FF03BC70
:1002100000F03EFD88B0002600F0FDF800F0CEFCB6
:100220004FF4165000F043FD00F046FA05E02DA013
:1002300001F0E4FDC82000F0FEFC00F018FA0028F0
:10024000F5D100F0C1FA00F04AFB28A001F0D6FD7C
:1002500046E00A2096FBF0F100FB116068B906A9A0
:1002600007A800F0D8F99DF81C1021A001F0C6FDE8
:100270009DF8181023A001F0C1FD0A2000F0DBFC5E
:10028000701CC6B29DF81C409DF81850224621A152
:1002900003A801F0BFFD2A461EA1684601F0BAFD81
:1002A0000D2201210A2000F0A7FB0E2201211E20B1
:1002B00000F0A2FB0F2204210A2000F09DFB0E2279
:1002C00004211E2000F098FB022303AA01213C20F8
:1002D00000F020FB02236A4604213C2000F01AFBB8
:1002E000B7E700006572726F720000006F6B00006C
:1002F00074656D70657261747572653A25640D0A76
:100300000000000068756D696469747925640D0AE0
:10031000000000002564202000000000704700BF9E
:10032000FEE700BFFEE700BFFEE700BFFEE7704745
:1003300070477047704700000CB500200190009096
:100340006C48006840F480306A49086000BF694822
:10035000006800F4003000900198401C0190009863
:1003600018B90198B0F5A06FF1D16248006800F4A7
:10037000003010B10120009001E0002000900098B2
:10038000012843D15C48006840F010005A490860D9
:100390000846006820F0030008600846006840F046
:1003A0000200086053484068524948600846406867
:1003B00048600846406840F48060486008464068ED
:1003C00020F47C1048600846406840F4E81048601B
:1003D0000846006840F08070086000BF454800682B
:1003E00000F000700028F9D04248406820F0030077
:1003F000404948600846406840F00200486000BF3D
:100400003C48406800F00C000828F9D10CBD10B53C
:10041000FFF792FF10BD10B53648006840F00100AC
:10042000344908600846406834490840314948600A
:1004300008460068324908402E49086008460068AE
:1004400020F4802008600846406820F4FE004860E0
:100450004FF41F008860FFF7DAFF4FF00060294972
:10046000086010BD10B5002100200022214B5B6800
:1004700003F00C0121B1042906D0082928D107E096
:10048000214B224C236027E01F4B204C236023E0AC
:10049000184B5B6803F47010164B5B6803F48032F2
:1004A000022303EB904022B9194B4343174C2360BE
:1004B0000DE0104B5B6803F4003323B1144B43434E
:1004C000124C236003E0104B4343104C236003E0C5
:1004D0000D4B0E4C236000BF00BF064B5B68C3F39F
:1004E00003130C4CE15C094B1B68CB40074C2360A9
:1004F00010BD000000100240002002400000FFF884
:10050000FFFFF6FE08ED00E000127A000000002078
:1005100000093D000400002010B56348006820F089
:100520000F00614908600846006840F00300086059
:1005300000205E490860142000F07DFB01205C492A
:10054000C1F880011E2000F052FB10BD10B5002440
:100550005548006820F00F005349086008460068BD
:1005600040F00800086004E0601CC4B2012000F004
:100570003EFB4E488038006808B1642CF4DB642CE4
:1005800001DB012010BD002404E0601CC4B2012086
:1005900000F02DFB45488038006808B9642CF4DB76
:1005A000642C01DB0120EDE70020EBE710B500240F
:1005B00004E0601CC4B2012000F019FB3B48803805
:1005C000006808B1642CF4DB002404E0601CC4B2B1
:1005D000012000F00CFB35488038006808B9642C15
:1005E000F4DB282000F003FB30488038006808B1B5
:1005F000012010BD0020FCE770B50024002506E0B6
:100600006006040EFFF7D2FF0443681CC5B2082D34
:10061000F6DB204670BD7CB505460E46FFF77CFF35
:10062000FFF794FFF8B9002405E0FFF7E5FF0DF8A8
:100630000400601CC4B2052CF7DB9DF800009DF897
:10064000011008449DF8021008449DF80310084466
:100650009DF80410884208D19DF8000030709DF884
:100660000200287001E001207CBD0020FCE708B5F5
:100670000121080200F0E8FE4FF40060ADF8000030
:1006800010208DF8030003208DF802006946094808
:1006900000F01EFC4FF40061064800F0C6FCFFF7B6
:1006A0003BFFFFF753FF08BD0008014080012142D6
:1006B000000021420020014000B585B0012148051D
:1006C00000F0CFFE0121082000F0BEFE4020ADF872
:1006D000000003208DF802001C208DF803006946FD
:1006E000F94800F0F5FB8020ADF800006946F648B7
:1006F00000F0EEFB0020ADF808004BF6FF70ADF8FF
:100700000A007820ADF80C004FF48060ADF80E00C0
:100710000001ADF81000ED48019001A9EC4801F08E
:1007200082F90121EA4801F0FCF905B000BD70B57D
:1007300004460D4600BF4FF40031E54801F018FBB8
:100740000028F8D10121E24801F00FFA00BFE14989
:10075000DF4801F0EBFA0028F9D000227821DC48CC
:1007600001F059FA00BFDC49D94801F0DFFA00284E
:10077000F9D02146D64801F048FA00BFD649891C75
:10078000D34801F0D3FA0028F8D02946D04801F028
:100790003CFA00BFD049891CCD4801F0C7FA0028B7
:1007A000F8D00121CA4801F0ECF970BD10B504463B
:1007B00021460020FFF7BBFF10BD10B504462146BF
:1007C0004020FFF7B4FF10BD10B54FF47A7000F071
:1007D00032FAAE20FFF7EAFF2020FFF7E7FF1020F4
:1007E000FFF7E4FFB020FFF7E1FFC820FFF7DEFFCF
:1007F0000020FFF7DBFF1020FFF7D8FF4020FFF7B6
:10080000D5FF8120FFF7D2FFFF20FFF7CFFFA12008
:10081000FFF7CCFFA620FFF7C9FFA820FFF7C6FF10
:100820003F20FFF7C3FFA420FFF7C0FFD320FFF74F
:10083000BDFF0020FFF7BAFFD520FFF7B7FFF0207C
:10084000FFF7B4FFD920FFF7B1FF2220FFF7AEFF7B
:10085000DA20FFF7ABFF1220FFF7A8FFDB20FFF73E
:10086000A5FF2020FFF7A2FF8D20FFF79FFF142098
:10087000FFF79CFFAF20FFF799FF10BD70B504464E
:100880000D4605F1B001C8B2FFF790FF102141EA13
:100890001410FFF78BFF04F00F0141F00100FFF788
:1008A00085FF70BD70B50646002415E004F1B00167
:1008B000C8B2FFF77BFF0020FFF778FF1020FFF79B
:1008C00075FF002504E03046FFF777FF681CC5B2CE
:1008D000802DF8DB601CC4B2082CE7DB70BD10B5BE
:1008E0000020FFF7DFFF10BD10B58D20FFF75EFF82
:1008F0001420FFF75BFFAF20FFF758FF10BD10B5C6
:100900008D20FFF753FF1020FFF750FFAE20FFF7B9
:100910004DFF10BD2DE9F0470646894617469A4619
:100920004FF0000800240025BAF1010F03D0BAF1FE
:10093000020F5ED125E020E0785D203800F0FF084E
:100940007E2E04DD002609F1010000F0FF09494672
:100950003046FFF793FF002409E008EB48015F4AA7
:1009600002EB4101085DFFF728FF601CC4B2062CB2
:10097000F3DBB01DC6B2681CC5B2785D0028DBD1C0
:1009800037E032E0785D203800F0FF08782E04DD93
:10099000002609F1010000F0FF0949463046FFF743
:1009A0006DFF002407E004EB08114D4A505CFFF78F
:1009B00004FF601CC4B2082CF5DB09F10100C1B2D0
:1009C0003046FFF75BFF002408E004EB0811083114
:1009D000434A505CFFF7F1FE601CC4B2082CF4DB04
:1009E00006F10800C6B2681CC5B2785D0028C9D1FE
:1009F00000BF00BFBDE8F0872DE9F04180460E46FC
:100A0000174600247D0131464046FFF737FF00BFFF
:100A100006E03449485DFFF7D0FE6D1C601CC4B28F
:100A2000102CF6DB701CC1B24046FFF727FF0024F4
:100A300006E02C49485DFFF7C0FE6D1C601CC4B287
:100A4000102CF6DBBDE8F0812DE9F04180460E4622
:100A5000174600BF07EBC700450131464046FFF788
:100A60000DFF002406E02049485DFFF7A6FE6D1C3F
:100A7000601CC4B2302CF6DB701CC1B24046FFF7DC
:100A8000FDFE002406E01849485DFFF796FE6D1C48
:100A9000601CC4B2302CF6DBB01CC1B24046FFF77C
:100AA000EDFE002406E01049485DFFF786FE6D1C50
:100AB000601CC4B2302CF6DBF01CC1B24046FFF71C
:100AC000DDFE002419E00000000C0140801A060041
:100AD000005400400100030082000700A420000829
:100AE000CC220008340A0020140000203249485D5E
:100AF000FFF763FE6D1C601CC4B2302CF6DB301DAA
:100B0000C1B24046FFF7BAFE002406E02A49485D1C
:100B1000FFF753FE6D1C601CC4B2302CF6DB701D59
:100B2000C1B24046FFF7AAFE002406E02249485D14
:100B3000FFF743FE6D1C601CC4B2302CF6DBBDE831
:100B4000F0812DE9F05F06460F4690461C46DDF821
:100B500028A04FF0000BE11704EB5171C910A4EB72
:100B6000C10131B92046E11704EB5171C1F3C7054A
:100B700006E02046E11704EB5171C910491CCDB2C3
:100B80003D4614E029463046FFF778FEB1460AE0BC
:100B900059460BF1010B1AF80100FFF70EFE09F19F
:100BA000010000F0FF09C145F2DB681CC5B2A54297
:100BB000E8DBBDE8F09F00001400002010B56FF0E6
:100BC000040000F0F8FE2E4800682E49B0FBF1F05A
:100BD0002D4908700846007800EB4001C1EBC010B9
:100BE0004FF6FF7101EAC0002849088010BD014698
:100BF000254A12784A434FF0E0235A6100229A6155
:100C00001A46126942F001021A6100BF4FF0E02259
:100C1000106900F001021AB100F48032002AF5D008
:100C20004FF0E022126922F001024FF0E0231A6136
:100C300000229A6170470146144A12884A434FF0D5
:100C4000E0235A6100229A611A46126942F00102B9
:100C50001A6100BF4FF0E022106900F001021AB1E2
:100C600000F48032002AF5D04FF0E022126922F021
:100C700001024FF0E0231A6100229A6170470000E0
:100C80000000002000127A003410002036100020EE
:100C9000014600BF704700BF494A128802F0400277
:100CA000002AF9D0C2B2464B1B1D1A80704710B5FE
:100CB00086B00446012144F2040000F0C5FB4FF465
:100CC0000070ADF8140003208DF8160018208DF880
:100CD000170005A93B4800F0FBF84FF48060ADF821
:100CE000140004208DF8170005A9364800F0F0F82C
:100CF00025208DF8000003208DF801008DF80200FA
:100D000001208DF80300684600F00BFE01940020DE
:100D1000ADF80800ADF80A00ADF80C00ADF8100011
:100D20000C20ADF80E0001A9254800F034FC01228A
:100D300040F22551224800F0C6FC0121204800F075
:100D4000B6FC06B010BD10B540F225511C4800F0AD
:100D50009FFD10B31A4800F01BFDC4B21A4800886A
:100D600000F40040C8B91848008800F4804060B121
:100D70000A2C03D000201449088020E01248008883
:100D800040F400401049088019E00D2C06D10E48AF
:100D9000008840F480400C49088010E00A48008830
:100DA000C0F30D0009490C5407480088401C06494F
:100DB000088008460088C72801DD0020088010BD93
:100DC00000380140000801403C1000205410002071
:100DD0000948804709480047FEE7FEE7FEE7FEE7CF
:100DE000FEE7FEE7FEE7FEE7FEE7FEE7044805490B
:100DF000054A064B7047000017040008310100083F
:100E00008011002080170020801300208013002014
:100E100010B50446CC48844208D10121042000F0DA
:100E20002DFB0021042000F029FB46E0C748844246
:100E300008D10121082000F021FB0021082000F04A
:100E40001DFB3AE0C248844208D10121102000F085
:100E500015FB0021102000F011FB2EE0BD4884425C
:100E600008D10121202000F009FB0021202000F002
:100E700005FB22E0B848844208D10121402000F05F
:100E8000FDFA0021402000F0F9FA16E0B348844250
:100E900008D10121802000F0F1FA0021802000F02B
:100EA000EDFA0AE0AE48844207D10121801500F036
:100EB000E5FA0021A01500F0E1FA10BD10B50121FE
:100EC000084600F0DBFA0021012000F0D7FA10BD3F
:100ED0002DE9F041024600250026002000230024D1
:100EE000002791F803C00CF00F0591F803C00CF037
:100EF000100CBCF1000F03D091F802C04CEA0505BC
:100F000091F800C0BCF1000F31D0146800202BE034
:100F10004FF0010C0CFA00F3B1F800C00CEA030624
:100F20009E4220D183004FF00F0C0CFA03F7BC4314
:100F300005FA03FC4CEA040491F803C0BCF1280F45
:100F400006D14FF0010C0CFA00FCC2F814C00AE004
:100F500091F803C0BCF1480F05D14FF0010C0CFA19
:100F600000FCC2F810C0401C0828D1D31460B1F8AE
:100F700000C0BCF1FF0F34DD546800202EE000F10A
:100F8000080C4FF0010808FA0CF3B1F800C00CEAA5
:100F900003069E4221D183004FF00F0C0CFA03F799
:100FA000BC4305FA03FC4CEA040491F803C0BCF10D
:100FB000280F05D100F1080C08FA0CF8C2F81480CB
:100FC00091F803C0BCF1480F07D100F1080C4FF0B5
:100FD000010808FA0CF8C2F81080401C0828CED38B
:100FE0005460BDE8F0814FF6FF71018002218170ED
:100FF0000421C17070470246002093680B400BB17A
:10100000012000E0002070470146886880B27047E8
:1010100002460020D3680B400BB1012000E0002005
:1010200070470146C86880B27047016170474161EE
:1010300070470AB1016100E041617047C1607047CB
:101040004FF480320A4382618161826182698269E0
:10105000704702460020434B18684FF680731840D3
:1010600040EA021008433F4B186070473E49C86190
:101070007047F0B50A46002300240021002500F047
:101080000046B6F1004F02D1364EF16901E0354E0F
:101090007168C0F3034583B200F44016B6F5401FF3
:1010A00008D121F070612F4E766826F070662D4FC2
:1010B0007E6012E000F48016B6F5801F06D103268C
:1010C00006FA05F4A14341F0706106E0460D3601D1
:1010D00003FA06F6B14341F0706122B1460D3601C4
:1010E00003FA06F6314300F00046B6F1004F02D194
:1010F0001C4EF16101E01B4E7160F0BD30B5002265
:101100008B071C0F0F2303FA04F2164B08338C10C5
:1011100053F824309343134C08348D1044F8253091
:1011200023468C1053F824308C07240F00FA04F463
:1011300023430C4C08348D1044F8253030BD0A4947
:10114000DC3108607047000000080140000C0140DD
:10115000001001400014014000180140001C014033
:10116000002001400000014000002042DF480068EC
:1011700040F00100DD49086008464068DC4908404D
:10118000DA49486008460068DA490840D7490860EB
:101190000846006820F4802008600846406820F473
:1011A000FE0048604FF41F0088607047CF4909680F
:1011B00021F48031CD4A11601146096821F4802163
:1011C0001160B0F5803F03D0B0F5802F0ED106E05E
:1011D000C649096841F48031C44A116007E0C34937
:1011E000096841F4A021C14A116000E000BF00BFBE
:1011F000704710B501460022002300204A11012A41
:1012000002D1BA4C236806E0022A02D1B74C236A05
:1012100001E0B64C636A01F01F02012494401C40B7
:101220000CB1012000E0002010BD38B50020009076
:101230000024002500BF3120FFF7DBFF05460098A2
:10124000401C00900098B0F5A06F01D0002DF2D0A6
:101250003120FFF7CEFF08B1012400E00024204632
:1012600038BD01460020A14A106820F0F80040EA8D
:10127000C10010607047A049086070470246002016
:101280009A4B586820F47C1042EA01031843974BAC
:101290005860704798490866704701460020934A95
:1012A000506820F003000843506070478F48406842
:1012B00000F00C007047014600208C4A506820F076
:1012C000F00008435060704701460020874A50688C
:1012D00020F4E06008435060704701460020834AD4
:1012E000506820F4605040EAC1005060704729B156
:1012F0007E4A527A02437D4B5A7204E07B4A527A0C
:1013000082437A4B5A7270477B49D83108607047E4
:1013100001460020754A506820F440400843506060
:1013200070470021714A20321170704A82F82010F3
:10133000012802D004280AD104E001216B4A20329E
:10134000117005E00521694A2032117000E000BFEC
:1013500000BF70476949086070476449096A0143E2
:10136000624A11627047654944390860704730B578
:1013700000210022002400235C4D6D6805F00C0163
:1013800021B1042905D0082923D105E05C4D056071
:1013900022E05B4D05601FE0544D6D6805F470124E
:1013A000524D6D6805F48034022505EB92421CB95C
:1013B000544D554305600BE04C4D6D6805F4003508
:1013C0001DB1504D5543056002E04D4D554305603C
:1013D00002E04B4D056000BF00BF444D6D6805F055
:1013E000F0010909484D6B5C0568DD4045603F4DE3
:1013F0006D6805F4E061090A434D6B5C4568DD40AA
:1014000085603A4D6D6805F46051C90A3E4D6B5CCC
:101410004568DD40C560354D6D6805F44041890B78
:101420003A4D6B5CC568B5FBF3F5056130BD29B17C
:101430002E4A526902432D4B5A6104E02B4A5269ED
:1014400082432A4B5A61704729B1284A9269024364
:10145000264B9A6104E0254A92698243234B9A61A4
:10146000704729B1214AD2690243204BDA6104E076
:101470001E4AD26982431D4BDA61704729B11B4A6B
:10148000D2680243194BDA6004E0184AD2688243FA
:10149000164BDA60704729B1144A12690243134BA4
:1014A0001A6104E0114A12698243104B1A617047B5
:1014B00012494039086070470F49C86470470B49AA
:1014C000C87170470948406A40F080700749486217
:1014D000704701460020054A92680A400AB101207F
:1014E00000E00020704701498872704700100240F8
:1014F0000000FFF8FFFFF6FE000042428004424277
:1015000000127A0000093D003E1000204E1000201D
:1015100010B50446FB48844209D101218803FFF736
:10152000ADFF00214FF48040FFF7A8FF32E0F648FE
:10153000844209D101214804FFF7ADFF00214FF497
:101540000030FFF7A8FF25E0F048844209D10121CF
:101550008804FFF7A0FF00214FF48020FFF79BFFD6
:1015600018E0EB48844209D10121C804FFF793FF3A
:1015700000214FF40020FFF78EFF0BE0E548844286
:1015800008D101210805FFF786FF00214FF48010E4
:10159000FFF781FF10BD2DE9F04786B005460E46E6
:1015A0000024A24600BFA1460027B08900B100BFB9
:1015B0002F462C8A4CF6FF700440F08804432C829E
:1015C000AC894EF6F3100440B08831890843718924
:1015D00008430443AC81AC8A4FF6FF400440B08915
:1015E0000443AC8201A8FFF7C2FEC648874202D17D
:1015F000DDF810A001E0DDF80CA0A88900F400409F
:1016000040B10AEBCA0000EB0A1031684900B0FB98
:10161000F1F807E00AEBCA0000EB0A103168890014
:10162000B0FBF1F86420B8FBF0F00401200964215C
:1016300001FB1089A88900F4004040B1322000EB82
:10164000C900B0FBF1F000F00700044308E03220CD
:1016500000EB09106421B0FBF1F000F00F0004432F
:101660002C8106B0BDE8F0874FF4165101600021CF
:101670008180C18001810C214181002181817047DD
:1016800010B502460020108A4FF2FF0318400B8865
:101690004C8823438C882343CC88234318431082EF
:1016A00010BD0021018041808180C180704721B13F
:1016B000828942F40052828104E082894DF6FF73F0
:1016C0001A4082817047F0B50346002400260025A9
:1016D000002040F66A17B94200D100BF1846C1F396
:1016E000421401F01F06012707FA06F5012C01D16B
:1016F0000C3004E0022C01D1103000E014301AB19B
:1017000007682F43076002E00768AF430760F0BD3A
:101710001AB1838A0B43838202E0838A8B438382DC
:101720007047028A4FF6F0731A400282028A0A4317
:101730000282704782894FF2FF731A408281828948
:101740000A438281704721B1828942F0020282817C
:1017500004E082894FF6FD731A4082817047028A45
:101760004FF6DF731A400282028A0A4302827047F0
:1017700021B1028A42F48042028204E0028A4BF6DE
:10178000FF731A4002827047C1F3080282807047DB
:1017900001468888C0F308007047818941F0010143
:1017A00081817047028BD2B20283028B42EA01220E
:1017B00002837047028B02F47F420283028B0A434A
:1017C0000283704721B1828A42F02002828204E0C3
:1017D000828A4FF6DF731A408282704721B1828A73
:1017E00042F01002828204E0828A4FF6EF731A40C0
:1017F0008282704721B1828A42F00802828204E02C
:10180000828A4FF6F7731A408282704721B182892B
:1018100042F40042828103E08289C2F30E02828197
:10182000704721B1828A42F40062828204E0828A97
:101830004FF2FF731A4082827047828A4FF6FB7321
:101840001A408282828A0A438282704721B1828A48
:1018500042F00202828204E0828A4FF6FD731A404F
:101860008282704702460020B1F5007F00D100BFA0
:1018700013880B400BB1012000E00020704701F4F9
:101880000072B2F5007F00D100BFCA4302807047EA
:1018900070B50246002400230025002040F66A1699
:1018A000B14200D100BFC1F3421501F01F03012670
:1018B00006FA03F3012D02D19689334006E0022D8A
:1018C00002D1168A334001E0968A33400C12012679
:1018D00006FA04F41688344013B10CB1012000E07C
:1018E000002070BD10B50022002340F66A14A1420A
:1018F00000D100BF0A1201249440A3B2DC4304804B
:1019000010BD000000380140004400400048004085
:10191000004C00400050004031490143314A116001
:10192000704770B5002100230F22C47804B32D4CFA
:10193000246804F4E064C4F5E064210AC1F10403FE
:10194000CA40447804FA03F1847814402143090121
:10195000254C0678A155047804F01F050124AC40FD
:1019600005786D11AD0005F1E025C5F8004109E0ED
:10197000047804F01F050124AC401C4D0678761154
:1019800045F8264070BD1A4A0A400243154B1B1FFA
:101990001A60704739B1134A121D12680243114B85
:1019A0001B1D1A6006E00F4A121D126882430D4B80
:1019B0001B1D1A607047042808D14FF0E021096907
:1019C00041F004014FF0E022116107E04FF0E02107
:1019D000096921F004014FF0E02211617047000015
:1019E0000000FA050CED00E000E400E080E100E01A
:1019F00080FFFF1F10B50446F748844209D101213A
:101A00004805FFF748FD00214FF40010FFF743FDA4
:101A100008E001218805FFF73EFD00214FF480001A
:101A2000FFF739FD10BD2DE9F04385B004460D46A2
:101A30000026B1460427DFF8A483A6884FF6C070BD
:101A400006406846FFF793FCDDF80880E448B8FBE1
:101A5000F0F01FFA80F946EA0906A68020884FF6C2
:101A6000FE71084020800026DE49286888420CD894
:101A700028684000B8FBF0F087B2042F00DA042792
:101A80003E4309F10100208427E0E8884BF6FF710E
:101A9000884206D1286800EB4000B8FBF0F087B21E
:101AA00009E0286800EBC00101EB0010B8FBF0F082
:101AB00087B247F48047C7F30B0008B947F0010726
:101AC00047F4004006434FF4967009FB00F04FF4D2
:101AD0007A7190FBF1F0401C2084A683208840F0AE
:101AE0000100208026884FF6F5300640A8886989D5
:101AF000084306432680A88929890843208105B028
:101B0000BDE8F08341F288310160002181804BF60D
:101B1000FF71C1800021018141814FF480418181A9
:101B2000704721B1028842F00102028004E002887D
:101B30004FF6FE731A400280704721B1828842F44A
:101B40000062828004E082884FF2FF731A40828034
:101B5000704721B1828842F48052828004E08288FA
:101B60004EF6FF731A408280704721B1028842F41A
:101B70008072028004E002884FF6FF631A40028000
:101B8000704721B1028842F40072028004E00288AA
:101B90004FF6FF531A400280704721B1028842F489
:101BA0008062028004E002884FF6FF331A40028010
:101BB00070470A46002181894FF60173194002F0EF
:101BC000FE0319438181704721B1828942F00102ED
:101BD000828104E082894FF6FE731A408281704749
:101BE00021B1028842F04002028004E002884FF6F0
:101BF000BF731A40028070471AB183880B438380F9
:101C000002E083888B4383807047018270470146DE
:101C1000088AC0B2704712B141F0010102E04FF6EC
:101C2000FE7319400182704708B5024600200090FB
:101C300000920098084400900098008808BD21B1E7
:101C4000028842F40042028003E00288C2F30E02DE
:101C500002807047B1F5006F04D1028842F400623F
:101C6000028004E002884FF2FF731A40028070473E
:101C7000B1F5005F04D1028842F40052028004E012
:101C800002884DF6FF731A400280704721B1028826
:101C900042F48052028004E002884EF6FF731A403C
:101CA00002807047B1F5006F04D1028842F40062EF
:101CB000028004E002884FF2FF731A4002807047EE
:101CC00021B1028842F02002028004E002884FF62F
:101CD000DF731A40028070470146088B001270477C
:101CE00021B1028842F01002028004E002884FF61F
:101CF000EF731A400280704721B9028842F08002D7
:101D0000028004E002884FF67F731A400280704719
:101D1000B1F5804F05D0828B4BF6FF731A4082835A
:101D200003E0828B42F480428283704770B50246A2
:101D30000024002500230020958A138B1B0445EA0C
:101D4000030626F07F4404EA01068E4201D10120F9
:101D500000E0002070BD10B50146002000230022E5
:101D60008B8A0A8B120443EA020424F07F4010BDE0
:101D70000CB50246002000230193009300920B0F44
:101D8000019321F07F41019B1BB1009B1433009311
:101D900003E0090C009B18330093009B1B680B4069
:101DA0000BB1012000E000200CBD002221F07F4299
:101DB000D3438382704730B50246002000239488C5
:101DC00001F0E06504EA154321F07F41948A0C405C
:101DD00054B14BB1012008E00054004000127A00D9
:101DE00040420F00A0860100002030BD002221F0FB
:101DF0007F42D34383827047704700000FB4044989
:101E000010B503AA029800F005F910BC5DF814FBA8
:101E1000381000200FB41CB5074B06AA7B44694656
:101E20000090059800F0DDF80020694600F0ECF81D
:101E30001CBC5DF814FB0000E90100002DE9F04135
:101E40000E460446002020622046E168884730B3F1
:101E5000252805D0D4E901219047206A401CF2E7EB
:101E6000E168204600278847050018D0A5F1410009
:101E7000192802D820354FF40067324629462046FB
:101E80002760FEF7AFF940B1012804D0F61D26F017
:101E900007060836D8E7361DD6E72846DAE7206A6F
:101EA000BDE8F0812DE9F04106460024106875294F
:101EB000314616A510D0AFF30080002802DA404268
:101EC00013A507E031688A0701D512A502E049078A
:101ED00004D511A5012401E0AFF3008000210A22FE
:101EE00006F1240709E0B0FBF2FCB0FBF2F302FBC1
:101EF0001C00303078541846491C0028F3D1234682
:101F00002A463046BDE8F04100F00CB80000000061
:101F10002D0000002B0000002000000070477047DB
:101F2000704770472DE9F0470D46994692460446A2
:101F300000F124080168880604D5E06921F0100149
:101F4000216000E00120A84201DD471B00E00027DE
:101F5000A1697A1902EB0900081AA0612078C0066D
:101F600002D42046AFF30080002608E0D4E9012126
:101F70001AF806009047206A401C761C20624E45E5
:101F8000F4DB2078C0060AD52046AFF3008006E0D7
:101F9000D4E9012130209047206A401C2062381E7D
:101FA000A7F10107F4DC07E0D4E9012118F80500E6
:101FB0009047206A401C2062281EA5F10105F3DC31
:101FC0002046AFF300802078000602D50220BDE84D
:101FD000F0870120FBE7000001694A1C02610878D4
:101FE000704700B58FB0CDE9013100210591054959
:101FF0007944CDE9031011466846FFF71FFF0FB083
:1020000000BD0000E5FFFFFF0A6802F8010B0A604F
:1020100070470000074B70B50D467B44FFF7E1FFAA
:102020000446284600F008F810B14FF0FF3070BDAC
:10203000204670BD79ECFFFF007B00F08000704708
:10204000754600F02BF8AE4605006946534620F071
:102050000700854618B020B5FEF7C8FEBDE8204051
:102060004FF000064FF000074FF000084FF0000B54
:1020700021F00701AC46ACE8C009ACE8C009ACE807
:10208000C009ACE8C0098D46704710B50446AFF3EF
:1020900000802046BDE81040FEF7B6B80048704703
:1020A0001C1100200000000000000000002F0000B4
:1020B00000000700070000147F147F1400242A7F0B
:1020C0002A1200626408132300364955225000008A
:1020D0000503000000001C224100000041221C00FA
:1020E0000014083E08140008083E0808000000A07C
:1020F0006000000808080808000060600000002078
:1021000010080402003E5149453E0000427F400055
:10211000004261514946002141454B3100181412DB
:102120007F10002745454539003C4A4949300001A8
:102130007109050300364949493600064949291EF7
:102140000000363600000000563600000008142259
:102150004100001414141414000041221408000259
:102160000151090600324959513E007C1211127C7E
:10217000007F49494936003E41414122007F4141AB
:10218000221C007F49494941007F09090901003E9D
:102190004149497A007F0808087F0000417F4100DB
:1021A000002040413F01007F08142241007F404051
:1021B0004040007F020C027F007F0408107F003E39
:1021C0004141413E007F09090906003E4151215E1F
:1021D000007F091929460046494949310001017F1C
:1021E0000101003F4040403F001F2040201F003FB2
:1021F0004038403F00631408146300070870080764
:1022000000615149454300007F41410000552A5576
:102210002A55000041417F000004020102040040F1
:102220004040404000000102040000205454547813
:10223000007F484444380038444444200038444433
:10224000487F00385454541800087E0901020018D1
:10225000A4A4A47C007F080404780000447D40000E
:10226000004080847D00007F102844000000417FF2
:102270004000007C04180478007C080404780038CE
:102280004444443800FC242424180018242418FC56
:10229000007C0804040800485454542000043F44BF
:1022A0004020003C4040207C001C2040201C003C82
:1022B0004030403C004428102844001CA0A0A07CD2
:1022C000004464544C44141414141414000000000A
:1022D000000000000000000000000000000000F806
:1022E00000000000000000333000000000100C0669
:1022F000100C0600000000000000000040C0784004
:10230000C0784000043F04043F040400007088FCCF
:1023100008300000001820FF211E0000F008F00027
:10232000E018000000211C031E211E0000F0088898
:10233000700000001E2123241927211010160E0002
:10234000000000000000000000000000000000E0AD
:1023500018040200000000071820400000020418C2
:10236000E00000000040201807000000404080F01E
:10237000804040000202010F01020200000000F054
:10238000000000000101011F010101000000000028
:102390000000000080B0700000000000000000009D
:1023A0000000000000010101010101010000000026
:1023B00000000000003030000000000000000000BD
:1023C00080601804006018060100000000E010089A
:1023D0000810E000000F102020100F00001010F86F
:1023E000000000000020203F2020000000700808AE
:1023F000088870000030282422213000003008882E
:10240000884830000018202020110E000000C02055
:1024100010F8000000070424243F240000F8088876
:10242000880808000019212020110E0000E0108803
:1024300088180000000F112020110E000038080835
:10244000C83808000000003F000000000070880845
:1024500008887000001C222121221C0000E01008C6
:102460000810E0000000312222110F00000000C01F
:10247000C0000000000000303000000000000080BC
:1024800000000000000080600000000000008040AC
:1024900020100800000102040810200040404040C5
:1024A0004040400004040404040404000008102018
:1024B000408000000020100804020100007048085D
:1024C0000808F0000000003036010000C030C828C5
:1024D000E810E0000718272423140B000000C03880
:1024E000E0000000203C23020227382008F88888FA
:1024F00088700000203F202020110E00C030080806
:1025000008083800071820202010080008F80808DC
:102510000810E000203F202020100F0008F88888D5
:10252000E8081000203F20202320180008F88888A1
:10253000E8081000203F200003000000C030080819
:102540000838000007182020221E020008F80800A2
:102550000008F808203F210101213F20000808F869
:10256000080800000020203F20200000000008088C
:10257000F8080800C08080807F00000008F888C04C
:1025800028180800203F20012638200008F80800FD
:1025900000000000203F20202020300008F8F80034
:1025A000F8F80800203F003F003F200008F830C046
:1025B0000008F808203F200007183F00E010080836
:1025C0000810E0000F10202020100F0008F8080865
:1025D0000808F000203F210101010000E010080878
:1025E0000810E0000F18242438504F0008F888889D
:1025F00088887000203F2000030C3020007088087D
:10260000080838000038202121221C00180808F88A
:10261000080818000000203F2000000008F808000B
:102620000008F808001F202020201F0008788800DC
:1026300000C83808000007380E010000F80800F84C
:102640000008F800033C0700073C030008186880F6
:102650008068180820302C03032C30200838C8006C
:10266000C83808000000203F2000000010080808BB
:10267000C83808002038262120201800000000FE5D
:10268000020202000000007F40404000000C30C009
:1026900000000000000000010638C0000002020235
:1026A000FE000000004040407F00000000000402E7
:1026B0000202040000000000000000000000000012
:1026C0000000000080808080808080800002020402
:1026D00000000000000000000000000000008080FA
:1026E000808000000019242222223F2008F8008068
:1026F00080000000003F112020110E00000000802B
:1027000080800000000E11202020110000000080B9
:102710008088F800000E112020103F2000008080EB
:1027200080800000001F222222221300008080F0FF
:10273000888888180020203F20200000000080802A
:1027400080808000006B94949493600008F800806F
:1027500080800000203F210000203F2000809898CA
:10276000000000000020203F20200000000000802A
:102770009898000000C08080807F000008F800006A
:1027800080808000203F24022D302000000808F8BF
:10279000000000000020203F20200000808080807A
:1027A00080808000203F20003F20003F808000800C
:1027B00080800000203F210000203F20000080801A
:1027C00080800000001F202020201F0080800080CB
:1027D0008000000080FFA12020110E00000000807A
:1027E00080808000000E112020A0FF80808080006B
:1027F0008080800020203F21200001000000808098
:10280000808080000033242424241900008080E08C
:10281000808000000000001F202000008080000059
:1028200000808000001F202020103F20808080003A
:102830000080808000010E3008060100808000804A
:10284000008080800F300C030C300F00008080006F
:10285000808080000020312E0E312000808080009A
:102860000080808080818E7018060100008080804A
:10287000808080000021302C2221300000000000E8
:10288000807C020200000000003F40400000000089
:10289000FF00000000000000FF0000000002027CBA
:1028A000800000000040403F0000000000060101E1
:1028B000020204040000000000000000000000000C
:1028C0000000000000000000000000003F40000089
:1028D0000000000000003000400030004000000018
:1028E00009000BC03D000BC03D00090018C024408A
:1028F0007FE0224031800000180024C01B000D80C2
:102900003240018003801C4027401C80074000406B
:102910001000600000000000000000000000000047
:1029200000001F80204040200000402020401F80E9
:1029300000000000090006001F80060009000000DA
:10294000040004003F800400040000000010006048
:102950000000000000000000040004000400040067
:102960000400000000000040000000000000000023
:10297000002001C006003800400000001F802040F9
:10298000204020401F800000000010403FC0004059
:102990000000000018C021402240244018400000E0
:1029A00010802040244024401B80000002000D00C5
:1029B00011003FC0014000003C80244024402440DE
:1029C000238000001F802440244034400380000006
:1029D0003000200027C03800200000001B80244069
:1029E000244024401B8000001C0022C022402240C2
:1029F0001F800000000000000840000000000000F0
:102A0000000000000460000000000000000004005E
:102A10000A00110020804040090009000900090057
:102A20000900000000004040208011000A0004005E
:102A30001800200023402400180000001F802040C0
:102A4000274029401F400000004007C039000F0008
:102A500001C0004020403FC0244024401B800000B3
:102A60001F802040204020403080000020403FC098
:102A7000204020401F80000020403FC024402E40C6
:102A800030C0000020403FC024402E003000000035
:102A90000F001080204022403380020020403FC0C1
:102AA000040004003FC02040204020403FC02040A0
:102AB000204000000060202020203FC02000200097
:102AC00020403FC024400B0030C0204020403FC089
:102AD00020400040004000C03FC03C0003C03C001C
:102AE0003FC0000020403FC00C4023003FC02000FA
:102AF0001F802040204020401F80000020403FC019
:102B000024402400180000001F802140214020E0C4
:102B10001FA0000020403FC02440260019C00040F4
:102B200018C0244024402240318000003000204062
:102B30003FC020403000000020003F8000400040A7
:102B40003F80200020003E0001C007003800200028
:102B5000380007C03C0007C038000000204039C0E2
:102B6000060039C0204000002000384007C038402F
:102B700020000000304021C02640384020C0000026
:102B8000000000007FE040204020000000007000B6
:102B90000C000380004000000000402040207FE047
:102BA00000000000000020004000200000000000A5
:102BB00000100010001000100010001000000000B5
:102BC00040000000000000000000028005400540B9
:102BD00003C0004020003FC00440044003800000C8
:102BE0000000038004400440064000000000038011
:102BF000044024403FC000400000038005400540E1
:102C000003400000000004401FC024402440200076
:102C1000000002E0055005500650042020403FC04F
:102C20000440040003C000400000044027C00040EE
:102C30000000000000100010041027E00000000059
:102C400020403FC00140070004C004402040204015
:102C50003FC000400040000007C0040007C004005F
:102C600003C00000044007C00440040003C000404B
:102C7000000003800440044003800000041007F0BB
:102C8000045004400380000000000380044004500E
:102C900007F00010044007C00240040004000000D8
:102CA000000006400540054004C00000000004008C
:102CB0001F800440004000000400078000400440E2
:102CC00007C000400400070004C0018006000400A3
:102CD000060001C0070001C006000000044006C055
:102CE000010006C0044000000410071004E0018049
:102CF000060004000000044005C006400440000037
:102D00000000000004007BE0402000000000000004
:102D10000000FFF000000000000040207BE0040005
:102D20000000000040008000400020002000400023
:102D30000000000000000000000000000000000093
:102D40000000000000001FCC000C0000000000008C
:102D50000000080030006000080030006000000043
:102D6000022003FC1E20022003FC1E200220000083
:102D700000000E1811043FFF10840C7800000000C2
:102D80000F0010840F3800C0077818840078000006
:102D900000780F8410C411240E9800E40084000809
:102DA0000800680070000000000000000000000043
:102DB00000000000000007E0181820044002000096
:102DC000000040022004181807E000000000000086
:102DD0000240024001800FF00180024002400000EA
:102DE0000080008000800FF80080008000800000DC
:102DF0000001000D000E00000000000000000000B7
:102E00000000008000800080008000800080008042
:102E10000000000C000C000000000000000000009A
:102E20000000000600180060018006001800200065
:102E3000000007F0080810041004080807F000005C
:102E40000000080408041FFC000400040000000047
:102E500000000E0C10141024104411840E0C0000FD
:102E600000000C1810041104110412880C700000EA
:102E7000000000E00320042408241FFC00240000BC
:102E800000001F98108411041104108810700000B5
:102E9000000007F008881104110418880070000071
:102EA00000001C00100010FC13001C0010000000AB
:102EB00000000E3811441084108411440E380000B4
:102EC00000000700088C10441044088807F0000038
:102ED000000000000000030C030C000000000000D4
:102EE00000000000000101060000000000000000DA
:102EF00000000080014002200410080810040000B7
:102F000002200220022002200220022002200000D3
:102F10000000100408080410022001400080000096
:102F200000000E001200100C106C10800F0000004A
:102F300003E00C1813E4142417C4082807D0000079
:102F40000004003C03C41C40074000E4001C0004D3
:102F500010041FFC1104110411040E8800700000FD
:102F600003E00C1810041004100410081C100000DA
:102F700010041FFC100410041004080807F00000DF
:102F800010041FFC1104110417C4100408180000D9
:102F900010041FFC1104110017C0100008000000ED
:102FA00003E00C181004100410441C7800400000CA
:102FB00010041FFC10840080008010841FFC10048B
:102FC0000000100410041FFC100410040000000096
:102FD00000030001100110011FFE1000100000008E
:102FE00010041FFC110403801464181C100400005A
:102FF00010041FFC1004000400040004000C000076
:1030000010041FFC1F0000FC1F001FFC1004000028
:1030100010041FFC0C04030000E010181FFC10003B
:1030200007F00808100410041004080807F0000056
:1030300010041FFC10841080108010800F0000000E
:1030400007F0081810241024101C080A07F20000CA
:1030500010041FFC1104110011C011300E0C0004EB
:1030600000000E1C11041084108410441C38000051
:103070001800100010041FFC1004100018000000BD
:1030800010001FF810040004000410041FF81000C2
:1030900010001E0011E0001C007013801C001000C6
:1030A0001FC0103C00E01F0000E0103C1FC00000EB
:1030B0001004180C163401C001C01634180C10048A
:1030C00010001C00130400FC13041C00100000007E
:1030D0000804101C1064108413041C041018000051
:1030E0000000000000007FFE40024002400200009D
:1030F000000030000C0003800060001C0003000092
:1031000000004002400240027FFE0000000000007C
:1031100000000000200040004000400020000000AF
:103120000001000100010001000100010001000197
:1031300000004000400020000000000000000000EF
:1031400000000098012401440144014400FC0004F3
:1031500010001FFC008801040104008800700000BA
:1031600000000070008801040104010400880000D0
:103170000000007000880104010411081FFC000415
:10318000000000F8014401440144014400C800006B
:103190000000010401040FFC1104110411001800C7
:1031A000000000D601290129012901C901060000FA
:1031B00010041FFC008401000100010400FC000455
:1031C00000000104190419FC0004000400000000C0
:1031D0000000000300010101190119FE00000000B8
:1031E00010041FFC0024004001B4010C0104000085
:1031F0000000100410041FFC000400040000000084
:10320000010401FC0104010001FC0104010000FCB7
:10321000010401FC008401000100010400FC000421
:10322000000000F8010401040104010400F800009A
:10323000010101FF00850104010400880070000005
:1032400000000070008801040104010501FF000175
:103250000104010401FC008401040100018000005C
:10326000000000CC01240124012401240198000065
:1032700000000100010007F8010401040000000043
:10328000010001F8000400040004010801FC00042E
:10329000010001800170000C00100160018001003C
:1032A00001F0010C003001C00030010C01F0010000
:1032B00000000104018C00740170018C0104000005
:1032C000010101810171000E0018016001800100FF
:1032D00000000184010C013401440184010C000050
:1032E000000000000000000001003EFC400240021F
:1032F0000000000000000000FFFF000000000000D0
:103300000000400240023EFC0100000000000000FE
:10331000000060008000800040004000200020008D
:10332000000000000000000000000000000000009D
:10333000000000000000000000000000000000008D
:10334000000000000000000000000000000000007D
:103350000000000F80380FFE380F8038000000009A
:10336000000000000000000000000000000001005C
:10337000000600000C0000380000310000060000CC
:103380000C000038000030000000000000000000C9
:1033900061800067F807F98000618000618000614A
:1033A000800061800067F807F980006180000000FC
:1033B00000000000000001C0E003E0F00630080457
:1033C00018081FFFFE040E080787F00381E00000C5
:1033D0000000000001F000060C00040408060C7058
:1033E00001F9C0000E00003BE000EC1807080804DB
:1033F0000C180003E00000000001E00007F003F8F3
:1034000018041C0804170807E1D003C0E00023B02B
:10341000003C08002008000010000000000000012F
:1034200000003100003200001C000000000000001D
:10343000000000000000000000000000000000008C
:10344000000000000000000000000000000000007C
:103450007F0001FFC00780F00C001810000420005E
:10346000020000000000002000021000040C001800
:103470000780F001FFC0007F000000000000000096
:103480000000000000000000000000004200006694
:1034900000006600003C0000180003FFC000180098
:1034A000003C0000660000660000420000000000D2
:1034B000080000080000080000080000080001FFE4
:1034C000C000080000080000080000080000080014
:1034D00000000000000100003100003200001C006C
:1034E00000000000000000000000000000000000DC
:1034F00000000000000000000800000800000800B4
:103500000008000008000008000008000008000093
:10351000080000080000000000000000000000009B
:1035200038000038000038000000000000000000F3
:10353000000000000000000000000000000000008B
:10354000000600001C000070000180000E00003822
:103550000000C0000700001C000030000000000058
:10356000000000007F8001FFE00380700600180467
:10357000000804000806001803807001FFE0007FC7
:1035800080000000000000000000010008010008A9
:1035900001000803FFF807FFF8000008000008001A
:1035A000000800000000000000000001C03802C058
:1035B00058040098040118040218040418061C1882
:1035C00003F81801E0F8000000000000000000010E
:1035D000C0E003C0F0040008040808040808061846
:1035E0000803F41801E7F00001E00000000000000B
:1035F000000000000300000D000011000061000049
:10360000810803010807FFF80FFFF8000108000117
:10361000080000000000000000E007FCD0060808D9
:10362000061008061008061008061838060FF006DF
:1036300007C0000000000000000000003F8001FF04
:10364000E00384300208180410080410080410086D
:10365000071810030FF00007C00000000000000072
:10366000000003C0000700000600000600F806077F
:10367000F806180006E00007000006000000000041
:1036800000000001E1E003F7F0063410041808041C
:103690001808040C08040C0806161803F3F001C1FE
:1036A000E000000000000000F80003FC30030638D2
:1036B0000402080402080402080404100308F001CC
:1036C000FFC0007F000000000000000000000000BC
:1036D00000000000000000007038007038007038F2
:1036E00000000000000000000000000000000000DA
:1036F000000000000000000000000000301A003050
:103700001C0000000000000000000000000000009D
:10371000000000000000000800001400002200006B
:1037200041000080800100400200200400100800D9
:10373000080000000000000021000021000021001E
:1037400000210000210000210000210000210000D4
:10375000210000210000000000000000000008001F
:103760000804001002002001004000808000410099
:103770000022000014000008000000000000000308
:10378000C00004C000040000080038080F38080812
:10379000380810000C300007E00003C000000000F3
:1037A000000000003F8000FFE0038070020F100661
:1037B000708804C088048308047F8802C0900301D5
:1037C0002000FE400000080000180001F8003E083C
:1037D00001C20007020007E20000FE00001FC8004F
:1037E00001F800003800000804000807FFF807FF90
:1037F000F80408080408080408080408080618085B
:1038000003F41801E7F00001E000000000000000F0
:103810003F8001FFE00380700200180400080400EC
:10382000080400080400100600200780C000000003
:1038300004000807FFF807FFF80400080400080464
:10384000000804001802001003807001FFE0007FF0
:103850008000000004000807FFF807FFF8040808CC
:10386000040808040808040808043E0804000806C0
:10387000001801006000000004000807FFF807FFBF
:10388000F8040808040800040800040800043E00C6
:10389000060000060000018000000000000000009B
:1038A0003F8001FFE0038070060018040008040256
:1038B000080402080203F00783F00002000002007F
:1038C00004000807FFF807FFF804080800080000D4
:1038D000080000080000080004080807FFF807FFB8
:1038E000F8040008000000000000040008040008BC
:1038F00004000807FFF807FFF804000804000804A4
:1039000000080000000000000000000000060000A9
:103910000700000104000104000104000307FFFE8A
:1039200007FFFC0400000400000400000400080776
:10393000FFF807FFF8040C08001800003E0004C759
:10394000800503C80600F8040038040018000008C9
:1039500004000807FFF807FFF8040008000008004B
:10396000000800000800000800000800001800001F
:103970006000000004000807FFF807800807FC004B
:10398000007FC00003F80007C00078000780080728
:10399000FFF807FFF804000804000807FFF8070015
:1039A0000803C00000E000003800001E000007000F
:1039B0000001C00400F007FFF80400000000000050
:1039C0007F8001FFE00380700600180400080400F7
:1039D0000806001803003001FFE0007F80000000AF
:1039E00004000807FFF807FFF804040804040004B3
:1039F0000400040400040400060C0003F80001F0B5
:103A000000000000000000007F8001FFE0038070E4
:103A10000600880400880400C806003C03003E013C
:103A2000FFE6007F8400000004000807FFF807FF9E
:103A3000F8040808040800040C00040F00040BC07C
:103A40000610F003F03801E0080000080000000153
:103A5000E0F803F030063010041808041808040CCD
:103A600008040C080206180207F00781E0000000B5
:103A700001800006000004000004000004000807A4
:103A8000FFF807FFF8040008040000040000060027
:103A90000001800004000007FFE007FFF0040018A9
:103AA00000000800000800000800000800000804EA
:103AB000001007FFE004000004000006000007E01B
:103AC0000007FE00041FE00001F80000380001E0DC
:103AD000043E0007C00006000004000004000007C8
:103AE000E00007FFC0041FF80007C007F80007FF49
:103AF00080043FF80007C004F8000700000400003D
:103B000000000004000806001807C07805F1C8008E
:103B10003E00001F800463E80780F80600180400D8
:103B20000800000004000006000007800007E0080D
:103B3000047C08001FF80007F800180804E00807D4
:103B4000000006000004000000000001000806005C
:103B5000380400F80403E8040F08047C0805F008A2
:103B600007C0080700180400600000000000000003
:103B700000000000000000000000003FFFFE2000E9
:103B800002200002200002200002200002000000AB
:103B900000000000000008000007000000C0000056
:103BA00038000006000001C000003000000E0000D8
:103BB00001000000000000000000200002200002C0
:103BC0002000022000022000023FFFFE0000000053
:103BD00000000000000000000000000000000000E5
:103BE000000800001000003000002000003000003D
:103BF00010000008000000000000000000000100AC
:103C000000010000010000010000010000010000AF
:103C1000010000010000010000010000010000019E
:103C20000000000000000000002000002000001044
:103C30000000100000000000000000000000000074
:103C4000000000000000000000F00019F8001B1840
:103C5000002208002608002408002410003FF80075
:103C60001FF800000800001800000004000007FF13
:103C7000F80FFFF0001818001008002008002008B6
:103C8000003018001FF0000FC0000000000000000E
:103C900007C0001FF0001830002008002008002096
:103CA00008003C08001C100000600000000000003C
:103CB0000000000007C0001FF000381800200800B6
:103CC000200800200804101007FFF80FFFF0000084
:103CD000100000000000000000000007C0001FF0FE
:103CE00000123000221800220800220800320800CA
:103CF0001E10000E20000000000000002000002028
:103D00000800200801FFF803FFF806200804200837
:103D1000042008072000030000000000000000004D
:103D2000000E000E6E001FF30031B10020B1002024
:103D3000B1003191001F13002E1E00200E00300034
:103D400000000004000807FFF80FFFF8001008004B
:103D50002000002000002008003FF8001FF80000AD
:103D600008000000000000000000002008002008FB
:103D7000002008063FF8063FF80000080000080091
:103D8000000800000000000000000000000000002B
:103D900003000003002001002001002003063FFE75
:103DA000063FFC00000000000000000000000004CE
:103DB000000807FFF80FFFF8000188000300002F3C
:103DC000C00038F80020380020080000080000007B
:103DD00000000000000004000804000804000807B8
:103DE000FFF80FFFF80000080000080000080000BE
:103DF00000000000002008003FF8003FF800100815
:103E0000002000003FF8003FF800100800200000EC
:103E10003FF8003FF8000008000000002008003FC5
:103E2000F8003FF8001008001000002000002008F3
:103E3000003FF8001FF8000008000000000000002C
:103E400007C0000FF00018300030080020080020E4
:103E500008003008001830000FF00007C000000014
:103E6000000000002001003FFF003FFF0010110094
:103E70002009002008002008003038001FF0000F43
:103E8000C00000000000000007C0001FF00038184C
:103E9000002008002008002009001011001FFF006A
:103EA0003FFF000001000000002008002008002063
:103EB00008003FF8003FF80008080010080020083C
:103EC0000020000030000030000000000000000072
:103ED0000000000C78001E180033080023080021A1
:103EE000080021880021980030F0003860000000B0
:103EF00000000000200000200000200000FFF00370
:103F0000FFF8002008002008002008000030000012
:103F100000000000000000002000003FF0007FF8DB
:103F2000000018000008000008002010003FF80002
:103F30007FF00000100000000000000020000030B2
:103F400000003C00003F800023F00000780000707B
:103F5000002380003C000030000020000020000012
:103F60003C00003FE00023F80000E0002700003E96
:103F700000003FE00021F80001E0003E00002000CA
:103F8000000000002008002008003838003E6800CB
:103F900027800003C8002CF80038380020180020C3
:103FA00008000000000000002000003003003C0179
:103FB000003F830023EC000070002380003C0000E1
:103FC0002000002000000000000000000000003879
:103FD000080020380020F80023E8002F88003E0861
:103FE00000380800201800007000000000000000E9
:103FF00000000000000000000000000008000014A5
:10400000001FF7FC30000620000200000000000046
:1040100000000000000000000000000000000000A0
:104020000000FFFFFF000000000000000000000093
:104030000000000000000000000020000230000628
:104040001FF7FC0014000008000000000000000042
:1040500000000000000000000000001800006000E8
:104060000040000040000020000010000008000098
:104070000400000400000C00001000009C40000838
:1040800000000020541000006C0100088C4500085E
:10409000541000202C070000C80100081184A24A17
:1040A000049009010203040607080978088080408B
:1040B0004040C0800F000819E03010101020C02BC5
:1040C0001FE02C1D01030E78353CE0FC07342A3C30
:1040D000070118781701070C98B0E08080838FFFE4
:1040E000FFE02020307CFFC1C0808072E13810F8F2
:1040F0001C06060303018181C1C0E0A1BFFF281D8A
:10410000FFFF0101460214FC18090F3FFCE0C080CC
:10411000030122596E080A17010103030682C67CB7
:104120001E9419217C020206011A0370693E017275
:10413000381280C040406078444642C284F804028D
:104140000202FC060009100CF8F018081870C04BA9
:10415000E0FFAA180DE0606070797F602020203FAA
:104160003F05290706106040C080FF0E170F7FFC37
:10417000C0807B0313E13F2809030303060E0E0EE4
:104180000C013A04011A06914D020301017B01451D
:104190001FF8040438F00E531BFE0861FDF8804040
:1041A00040EB59A41AC01B128029D939AD49051911
:1041B0008AFA01EC5100091107081070C081030749
:1041C0000418D8FF2D480B01030E181030606060F2
:1041D00040010F4960203010180EEE01560C1E20D1
:1041E0006020010008CB3038383C3830200A1810E5
:1041F00001076A181C1E1C18100C1E40C04001004C
:10420000085960707878706040D480C0800C1A02C1
:104210000602012A03010A26025BDAE05D610A1B3D
:1042200001010930C16AE0670B1C01035B091267D9
:104230006DF8F0F020017BE0E009690AAF2020F87A
:10424000F07020BD93FFFF790B0A12FF15F9100CD7
:1042500027FCFF3F3087C0E0783F0F03E80C1F3F8B
:104260007F706060607070706030080A16C0FFFF79
:1042700088848283818001D930041E1F1F0FBB1FD9
:104280000F210917584901061AC0E0F0E0C07CF878
:10429000FFFFC501188A20019CFCFF3F0E051DF0A1
:1042A000F8F830C4FEFF1FDAFFEBF1CCC0FFFFFBD4
:1042B0004CFFFF07E3918C040C04019C0707070ED9
:1042C000391129061A061803FF06040124200F10CD
:1042D00010D0FF9014E4AFA4A4A4AFE4041304032B
:1042E00012FF180B894B2A1A0E1A2A4B8880202A93
:1042F000900120091010FF101011161010082060F6
:10430000203F10101017030C102040F83540404299
:10431000CC22FF3AFE06311E3F1088601F0739107D
:10432000180E2030AC633004A4643C27E40404601D
:104330001810226722121220110D41817F010509F8
:10434000301110082C2020FF2028263AF8301808B9
:10435000028242221A070201350F40807F14020CAC
:10436000C01D080808FF04192211101002027F80E6
:104370004121110D030D11214181812A203E5D2231
:1043800014901040100A404020130C142241F85998
:1043900040280E2028AA6C28382FA8A8ECAA28208C
:1043A00040100E11151555957F14141410110202AA
:1043B000180C40221408F402445454547F0412444C
:1043C0002D08448241BA3A152609204010090820D8
:1043D0000620407E3180120248087E7F42494249D1
:1043E0007E04137F421A7E1419311118160C3FF106
:1043F0002401242124323FAAA4A464A424A43FAA13
:10440000243212240120017940180A227F12490A1D
:1044100049FE49020216FE490A7F122A224025104F
:1044200060028C2BFE920132FE180A04047E0140C9
:104430007E42427E0234427E402809FC242424FC31
:10444000252624081204481040308F80844C5525BE
:104450002525554C80808040493F7940180B4448C1
:10446000507F40407F50484440100A03050911FF27
:10447000118905C312E012F072F8073D4428FF11BC
:10448000AA44700B830138448292927401831E7C8B
:1044900044C7017D01990562FF9A0102818A010BDF
:1044A000013669419949FA0101A12A4001212A6D89
:1044B00001212A6001791501642ADB010915072A07
:1044C000DA01212AD801212AC0010915072A800111
:1044D00001352A06010918071CE66620076A8615B9
:1044E0007A861C2A8601180A80808686068686C0FF
:1044F000C00C0E1C0606D030764D29070131136022
:104500001C12FE1301021009C41820029E63B20E91
:104510001DFF8181FFF24440300F12FF180923EA8A
:10452000AABFAAEA033F0B012DBC808080080115B9
:10453000240E0C082A01013149041D81808081026A
:104540001901B91706110101090C0E0A14C0012145
:1045500078081E21404050215E08012A4DFFFFC10E
:10456000C10409232DE81580FCF3EFF3FC80FF80E4
:10457000EEEEEEF5FBFF9CBEB6B6883A2D010203C7
:0C4580000404180806070809020406F3EA
:0400000508000131BD
:00000001FF
